:020000040800F2
:100000000007002089010008E318000865160008B1
:10001000E1180008110400088F1B00080000000010
:10002000000000000000000000000000E7180008C9
:100030001304000800000000E5180008E918000893
:10004000A3010008A3010008A3010008A301000800
:10005000A3010008A3010008A3010008A3010008F0
:10006000A3010008A3010008A3010008A3010008E0
:10007000A3010008A3010008A3010008A3010008D0
:10008000A3010008A3010008A3010008A3010008C0
:10009000A3010008A3010008A3010008A3010008B0
:1000A000A3010008A3010008A3010008A3010008A0
:1000B000A3010008A301000800000000A30100083C
:1000C000A30100080000000000000000A3010008D8
:1000D00000000000A3010008A301000800000000C8
:1000E000A3010008A3010008A301000800F002F822
:1000F00000F03AF80AA090E8000C82448344AAF188
:100100000107DA4501D100F02FF8AFF2090EBAE885
:100110000F0013F0010F18BFFB1A43F0010318473B
:10012000AC1D0000CC1D0000103A24BF78C878C177
:10013000FAD8520724BF30C830C144BF04680C60ED
:10014000704700000023002400250026103A28BF35
:1001500078C1FBD8520728BF30C148BF0B60704739
:100160001FB51FBD10B510BD00F077F81146FFF7A1
:10017000F7FF01F079FD00F095F803B4FFF7F2FF07
:1001800003BC00F09DF8000009488047094800477B
:10019000FEE7FEE7FEE7FEE7FEE7FEE7FEE7FEE737
:1001A000FEE7FEE704480549054A064B7047000094
:1001B00065190008ED00000800010020000700207C
:1001C000000300200003002010B5431C02E010F8DB
:1001D000011B71B18107FAD14FF0013202C88C1AAC
:1001E0008C4314EAC211F9D0C01A0A0603D0C01E0B
:1001F00010BDC01A10BD0A0401D0801E10BD090236
:10020000FCD0401E10BD4FF0000200B513469446CE
:100210009646203922BFA0E80C50A0E80C50B1F15E
:100220002001BFF4F7AF090728BFA0E80C5048BF72
:100230000CC05DF804EB890028BF40F8042B08BF10
:10024000704748BF20F8022B11F0804F18BF00F80C
:10025000012B7047704770477047754600F02CF8C7
:10026000AE4605006946534620F00700854618B0A3
:1002700020B5FFF797FFBDE820404FF000064FF094
:1002800000074FF000084FF0000B21F00701AC46CB
:10029000ACE8C009ACE8C009ACE8C009ACE8C009EA
:1002A0008D46704710B50446AFF300802046BDE888
:1002B0001040FFF762BF000000487047A000002018
:1002C00001491820ABBEFEE726000200704700007F
:1002D00070B5044600688168C943C90717D18168B1
:1002E00021F00101816000F0E1FB05460AE000BF5A
:1002F00000F0DCFB401B022804D920688068C04362
:10030000C00706D020688068C043C007F0D0002036
:1003100070BDA06A40F01000A062E06A40F00100E9
:10032000E062012070BD0000F8B50026044600968A
:1003300000688168C943C9072DD0816841F0010177
:100340008160164816490068B0FBF1F000E0401EDD
:1003500000900028FBD100F0A9FB054616E000BF85
:1003600000F0A4FB401B022810D920688068C0431D
:10037000C0070BD0A06A40F01000A062E06A40F015
:100380000100E06284F824600120F8BD20688068E4
:10039000C043C007E4D10020F8BD000024000020C5
:1003A00040420F000EB50020009001200190032074
:1003B00002906946034800F02DF8002801D072B67B
:1003C000FEE70EBD280000200EB501200090019030
:1003D000062002906946044800F01CF8002801D06D
:1003E00072B6FEE70EBD0000280000200EB5022008
:1003F000009001200190072002906946034800F018
:1004000009F8002801D072B6FEE70EBD28000020D2
:10041000FEE77047F8B50024009490F824202546A4
:10042000012A12D0012280F824204A681F23072ABB
:100430000DD20668776B521E02EB820293409F43F7
:100440000B6893401F43776319E00220F8BD0668EC
:100450000D2A0AD2376BD21F02EB820293409F43D0
:100460000B6893401F43376309E0F76A0D3A02EBCC
:10047000820293409F430B6893401F43F7620A68D0
:10048000072306680A2A0AD3F7680A3A02EB4202EF
:1004900093409F438B6893401F43F76008E03769A0
:1004A00002EB420293409F438B6893401F433761A6
:1004B0000A68102A01D0112A20D1124B02689A42F0
:1004C00017D193681B0219D4936843F40003936017
:1004D0000968102912D10C490C4A0968B1FBF2F1E4
:1004E00001EB8101490000E0491E00910029FBD188
:1004F00004E0816A41F020018162012480F82450E7
:100500002046F8BD002401402400002040420F0096
:100510000068C06C704700002DE9F0414FF0000703
:1005200004003D467ED0A06A002628B9E66284F821
:100530002460204600F07EF82046FFF7C9FEA16A3D
:10054000C90600D420B1A06A40F01000A06269E0A2
:10055000A16A21F4885141F00201A1626268E16957
:10056000237B0A4347EA43010A43A1684FF480779B
:10057000B94209D0012907D05FF0000194F814C0F6
:10058000BCF1010F02D00AE03946F7E7F3B1A36AE4
:1005900043F02003A362E36A43F00103E3622368AC
:1005A000D3F804C02CF4694C4CEA010CC3F804C025
:1005B00021688B68DFF870C003EA0C0313438B607B
:1005C000A168B9420BD0012909D00CE0DFF85CC06A
:1005D000A3690CEB43330B4343F40061DFE7218A4B
:1005E0000D05A5F580152168CB6A23F470032B4314
:1005F000CB62216889680E4B1940914208D1E662AE
:10060000A16A21F0020141F00101A162BDE8F0817F
:10061000A06A20F0020040F01000A062E06A40F002
:100620000100E0620120F1E7FDF7E1FF00E0FFFFDC
:10063000FE0E1FFF00B585B00021009101910291CF
:10064000039100680E49884218D10E48816941F42F
:1006500000718161816901F400710491816941F047
:10066000040181618069694600F00400049007205C
:10067000009003200190044800F032F905B000BD5D
:100680000024014000100240000801402DE9F84319
:1006900000270D460446009700F008FA80462068BF
:1006A0008168C90508D5A06A40F02000A06284F8DE
:1006B00024700120BDE8F8834168C90503D4C06AED
:1006C00010F4700F2AD0022000F080FA3B4909682C
:1006D000B1FBF0F62068036939490B424FEA61012A
:1006E0004FEAA1121FD1C3684FEA611C13EA0C0F35
:1006F00019D103690B4225D1C068104222D11420C0
:1007000023E0681C0AD02DB100F0D0F9A0EB08005E
:10071000A84203D920680068800725D520680068B2
:100720008007EED52DE003690B4202D1C16811426A
:1007300006D0026923490A4206D1C068084203D1A3
:10074000542002E0292000E0FC204643009816E0F7
:10075000681C11D02DB100F0A9F9A0EB0800A84247
:100760000AD90098B04207D2A06A40F00400A06203
:1007700084F8247003209DE70098401C0090B0424C
:10078000E6D321686FF012000860A06A40F40070A0
:10079000A06220688068C0F3424007280CD1207B0B
:1007A00050B9A06A20F48070A062A06AC00403D48B
:1007B000A06A40F00100A06200207BE72400002036
:1007C000244992244992240070B5044690F82400EC
:1007D00001280DD0012084F824002046FFF7A4FD55
:1007E00002004FF0000005D084F82400104670BDD0
:1007F000022070BDA16A40F20123994341F4807147
:10080000A1621F4D23681F49AB4218D10E6816F430
:10081000702F14D0A66A46F48016A6620E6876057C
:1008200005D5A66A26F4005646F48056A662A66A46
:10083000F6040AD5E66A26F00606E66206E0A66A2F
:1008400026F48016A6625E68E9E7E06284F8240078
:100850006FF00200186020688368C3F34243072BDF
:1008600005D1A84208D1096811F4702F04D081681D
:1008700041F480118160B9E7816841F4A001F9E792
:10088000002801400424014010B5044690F82400DB
:10089000012807D0012084F824002046FFF718FD26
:1008A00010B107E0022010BDA16A21F4885141F087
:1008B0000101A162002184F8241010BD70B5044626
:1008C00000F0F4F80546601C02D0044800780444A7
:1008D00000F0ECF8401BA042FAD370BD18000020D5
:1008E0002DE9F84FDFF89C91002409F1040A0AF180
:1008F000040B23460F270BF1040EBBE00125A54096
:100900002A40AA4276D1DFF880C14E68A6EB0C08D7
:1009100066452BD00DDC032E34D005DC36B3012E1A
:1009200019D0022E2FD11BE0112E16D0122E2AD153
:1009300019E0B8F5881F19D006DCB8F5803F15D04E
:10094000B8F5801F1FD111E0B8F5001F0ED0B8F523
:10095000041F18D10AE0CB6815E0CB681B1D12E01C
:10096000CB6808330FE0CB680C330CE08B682BB1FD
:10097000012B4FF0080303D0456104E0042302E09B
:10098000056100E00023FF2A01D8064601E000F1DE
:1009900004064FEA840501D9A5F12005D6F80080A8
:1009A00007FA05FC28EA0C0803FA05F548EA0508E9
:1009B000C6F800804D68ED005BD5344DAE6946F059
:1009C0000106AE61AD6924F0030605F0010500954E
:1009D0002F4D06EB050CDCF80850A607360F07FA7A
:1009E00006F825EA0805DFF8AC80404503D14FF052
:1009F000000810E03DE0DFF8A080404502D14FF054
:100A0000010808E0DFF89480404502D14FF0020869
:100A100001E04FF0030808FA06F848EA0508CCF8A8
:100A200008804D68D9F80060ED034D4601D51643A6
:100A300000E096432E604D68DAF80060AD0355463D
:100A400001D5164300E096432E604D68DBF8006048
:100A5000ED025D4601D5164300E096432E604D68D9
:100A6000DEF80060AD02754601D5164300E09643FE
:100A70002E60641C0A6832FA04F57FF43FAFBDE8CB
:100A8000F88F000000040140000011100010024027
:100A90000000014000080140000C0140001001402E
:100AA0000AB1016170470904FBE700000148806852
:100AB0007047000018000020024881680278114445
:100AC0008160704718000020074810B5016841F0A8
:100AD00010010160032000F067F80F2000F006F815
:100AE00000F024F8002010BD0020024070B50D4D2C
:100AF00004464FF47A712878B1FBF0F00A4909688E
:100B0000B1FBF0F000F0A8FB48B9102C07D200228E
:100B10002146501E00F028F800206C6070BD0120B6
:100B200070BD000018000020240000200C4808B50B
:100B3000816941F001018161816901F00101009148
:100B4000C16941F08051C161C06900F080500090DE
:100B50000448416821F0E06141F00071416008BD46
:100B60000010024000000140F0B40E4B1B680C4620
:100B7000C3F30223C3F10705042D00D90425191D71
:100B8000072901D2002300E0DB1E012606FA05F149
:100B9000491E214099409E40761E16403143F0BCCC
:100BA00000F0F6BF0CED00E0064900F0070208680F
:100BB0004FF6FF03184040EA0220034A1043086042
:100BC000704700000CED00E00000FA0510B529A404
:100BD00001461DCC86B08DE81D002AA02A4C006875
:100BE00004900020012923D002293AD010291DD1D8
:100BF00061682268D20119D5C1F38342C9031DF887
:100C0000020009D5616804AAC1F34041515C1F4A42
:100C1000B2FBF1F1484301E01D49484361684902D4
:100C200004D440005FF00301B0FBF1F006B010BD4A
:100C3000226AC2F30121012903D1920701D5C80319
:100C4000F4E7022905D1626A920702D549F64040CD
:100C5000ECE70329EAD121688903E7D54FF2244064
:100C6000E4E700F023F96168C1F38131491C4900D0
:100C7000DAE7000002030405060708090A0B0C0D59
:100C80000E0F1010010200000010024000127A0046
:100C900000093D002DE9F84305460078354CC007B2
:100CA00054D0E0690026C00008D4E06940F08050CC
:100CB000E061E069012600F0805000902E48016854
:100CC000C90512D40168804641F480710160FFF7C4
:100CD000EDFE074605E000BFFFF7E8FEC01B6428F5
:100CE00023D8D8F80000C005F6D5206A10F440706B
:100CF00021D0A98801F4407181421CD0206A1F498B
:100D0000012220F440700A6000220A602062C007BD
:100D100011D0FFF7CBFE074641F2883808E000BF4C
:100D2000FFF7C4FEC11B414502D90320BDE8F8838B
:100D3000206A8007F4D5206A696820F4407008436F
:100D400020621EB1E06920F08050E06128788007C1
:100D500005D56068A96820F44040084360602878A1
:100D6000C00605D56068E96820F48000084360602B
:100D70000020DBE7001002400070004040044242C7
:100D80002DE9F0470F46050061D0434E306800F072
:100D90000700B84209D2306820F0070038433060BD
:100DA000306800F00700B84251D128683B4C8107F9
:100DB00012D5400703D5606840F4E0606060287891
:100DC000000703D5606840F4605060606068A968FF
:100DD00020F0F000084360602878C00728D06868D9
:100DE000012810D02168022810D0890700292EDAA6
:100DF000616821F0030101436160FFF757FE8046FF
:100E000041F288390DE021688903EFE78901EDE7B8
:100E1000FFF74CFEA0EB0801494502D90320BDE8CD
:100E2000F0876068696800F00C00B0EB810FEFD1CB
:100E3000306800F00700B8420BD9306820F0070096
:100E400038433060306800F00700B84201D001201C
:100E5000E5E72878400705D56068E96820F4E06098
:100E6000084360602878000706D56068296920F487
:100E7000605040EAC100606000F028F86168084AEC
:100E8000C1F30311515CC840064908600648006878
:100E9000FFF72CFE0020C2E70020024000100240B5
:100EA000B41E0008240000201C000020044805494E
:100EB00000684968044AC1F3C221515CC8407047C8
:100EC0002400002000100240C41E000812A185B0BA
:100ED0000FC98DE80F0014A0144A006804905168EF
:100EE000134801F00C03042B10D0082B0ED1C1F3D2
:100EF0008343C9031DF803000AD5516804AAC1F34E
:100F00004041515C0A4A5043B0FBF1F005B07047D4
:100F100008494843FAE700000203040506070809E8
:100F20000A0B0C0D0E0F1010010200000010024001
:100F300000127A0000093D002DE9F84F040070D03E
:100F40002078C04DC00749D06868C0F381000128EF
:100F500007D06868C0F38100022809D16868C0031F
:100F600006D52868800339D560680028E7D035E0C9
:100F70006068B0F5803F0BD010B1B0F5A02F11D054
:100F8000286820F480302860286820F4802002E05F
:100F9000286840F480302860606890B1FFF786FDD3
:100FA00006460AE0286840F480202860F0E700BF89
:100FB000FFF77CFD801B642873D828688003F7D571
:100FC0000CE0FFF773FD064605E000BFFFF76EFD7E
:100FD000801B6428F0D828688003F7D420789A4EC4
:100FE00080074FF001094FF0000839D5686810F00C
:100FF0000C0F07D06868C0F38100022809D1686827
:10100000C00306D42868800714D52069012808D1B8
:1010100010E02069B0B1C6F80090FFF747FD074621
:1010200005E00AE1FFF742FDC01B0228C4D828688A
:101030008007F7D52868616920F0F80040EAC10010
:1010400028600DE0C6F80080FFF730FD074604E099
:10105000FFF72CFDC01B022823D828688007F7D48F
:10106000207800072CD57948A169D9B1C0F8009043
:10107000FFF71CFD074604E0FFF718FDC01B022820
:101080000FD8686A8007F7D571484FF4FA510068A5
:10109000B0FBF1F0009000BF0098411E0091FAD221
:1010A0000EE080E0C0F80080FFF700FD074604E096
:1010B000FFF7FCFCC01B022875D8686A8007F7D4CC
:1010C0002078400760D5E8690027C00008D4E869A7
:1010D00040F08050E861E869012700F080500090FE
:1010E0005C480168C90513D40168834641F48071E6
:1010F0000160FFF7DBFC824606E000BFFFF7D6FC8D
:10110000A0EB0A0064284ED8DBF80000C005F5D536
:10111000E06801280AD008B1052813D0286A20F019
:1011200001002862286A20F0040002E0286A40F0EA
:1011300001002862E06841F2883B98B1FFF7B6FCF5
:1011400082460BE0286A40F004002862EEE700BF08
:10115000FFF7ACFCA0EB0A0159455AD8286A800772
:10116000F6D50CE0FFF7A2FC824605E0FFF79EFCF7
:10117000A0EB0A0159454CD8286A8007F6D41FB164
:10118000E86920F08050E861E06988B36968C1F3DC
:101190008101022944D00228C6F8608004D0FFF7FC
:1011A00085FC044638E034E0FFF780FC074604E0A5
:1011B000FFF77CFCC01B02282BD828688001F7D4DD
:1011C000206AB0F5803F05D16868A16820F400303E
:1011D00008436860D4E908010843696821F4741180
:1011E00008436860C6F86090FFF760FC044606E0BC
:1011F00025E000BFFFF75AFC001B022809D8286829
:101200008001F7D51BE000BFFFF750FC001B022850
:1012100002D90320BDE8F88F28688001F4D40EE0DD
:101220000128F7D06868226A00F48031914204D125
:10123000616A00F47010884201D00120EAE70020C2
:10124000E8E70000001002400000424280044242F1
:10125000240000200070004010B5401EB0F1807FD7
:1012600001D3012010BD4FF0E02460610F21601711
:1012700000F08EFC0020A06107202061002010BD3E
:1012800070B590F83C20012A23D0012480F83C401E
:10129000022280F83D2003685A689D6822F070069B
:1012A0000A6832435A600C4B02689A4205D0B2F188
:1012B000804F02D0094B9A4204D1496825F080033F
:1012C0001943916080F83D40002180F83C100846A9
:1012D00070BD022070BD0000002C014000040040E1
:1012E00010B5040003D094F83D0010B107E00120D0
:1012F00010BD002084F83C00204600F01FF80220BA
:1013000084F83D00211D206800F02EFB012084F8A8
:10131000460084F83E0084F83F0084F8400084F8DA
:10132000410084F8420084F8430084F8440084F8C3
:10133000450084F83D00002010BD000008B500689D
:101340000649884208D10648C16941F00201C161DD
:10135000C06900F00200009008BD000000040040D9
:101360000010024070B5044690F83C00012817D0E8
:10137000012584F83C50022084F83D0020688268F2
:1013800022F0770222F47F4282600868502830D031
:101390000DDC20284DD005DC98B310283BD148E067
:1013A000022070BD302844D0402834D139E0602874
:1013B00028D0702806D0B0F5805F2CD0B0F5005F43
:1013C00029D10AE0CB68D1E90121206800F007FBB0
:1013D0002068816841F0770109E0CB68D1E90121FB
:1013E000206800F0FCFA2068816841F48041816047
:1013F00011E0CA684968206800F0A6FB5021206807
:1014000007E016E0CA684968206800F0AEFB60217A
:10141000206800F0EEFA84F83D50002084F83C008B
:1014200070BDCA684968206800F08EFB40212068C2
:10143000EFE7226801461046EBE7000010B586B0E2
:1014400000210091019102910391006813498842A3
:1014500021D11348816941F004018161816901F062
:1014600004010491816941F00801816180690224CD
:1014700000F008000490C020CDE900046946094846
:101480000394FFF72DFA0320CDE9000469460648CE
:101490000394FFF725FA06B010BD000000040040D9
:1014A0000010024000080140000C014070B50446E5
:1014B00090F83C000D4601280AD0012084F83C0039
:1014C00042B1042A18D0082A2AD00C2A4DD139E07A
:1014D000022070BD206800F095FA2068816941F013
:1014E000080181612068816921F00401816120681F
:1014F00081692A69114311E0206800F0ABFA206885
:10150000816941F4006181612068816921F4806111
:101510008161206881692A6941EA0221816124E0B0
:10152000206800F0C3FA2068C16941F00801C16178
:101530002068C16921F00401C1612068C1692A697C
:10154000114311E0206800F0DDFA2068C16941F420
:101550000061C1612068C16921F48061C1612068B6
:10156000C1692A6941EA0221C161002084F83C0076
:1015700070BD10B5040003D094F83D0010B107E031
:10158000012010BD002084F83C00204600F01EF829
:10159000022084F83D00211D206800F0E5F90120BB
:1015A00084F8460084F83E0084F83F0084F8400048
:1015B00084F8410084F8420084F8430084F8440031
:1015C00084F8450084F83D00002010BD70470000FD
:1015D00010B50446022249B104290ED0082913D0BF
:1015E00094F84100012816D0012010BD94F83E0067
:1015F0000128F9D184F83E200FE094F83F0001283B
:10160000F2D184F83F2008E094F840000128EBD1A3
:1016100084F8402001E084F841200122206800F095
:10162000D1F90E492068884203D1426C42F400424D
:1016300042642068884205D0B0F1804F02D008494A
:10164000884204D1816801F00701062903D00168AE
:1016500041F001010160002010BD0000002C01409C
:1016600000040040FEE710B500F014F8332000F04D
:10167000D1FA322000F0CEFA282000F0CBFA012077
:1016800000F0C8FA0C2000F0C5FABDE810400620B2
:1016900000F0C0BA2DE9F04786B034480024029427
:1016A000816941F004018161816901F004010491C3
:1016B000816941F008018161816901F008010491AB
:1016C000816941F0100181618069032600F01000FA
:1016D000CDE903604FF480480125DFF894A0CDE9FF
:1016E000008569465046FFF7FBF84FF40049CDF8F6
:1016F00000900396CDE9015469465046FFF7F0F893
:101700006F0300970396CDE9015469465046FFF7F1
:10171000E7F8002239465046FFF7C2F92803CDE921
:101720000005DFF850A0CDE9024669465046FFF7B4
:10173000D7F800970396CDE9015469465046FFF764
:10174000CFF8CDF800800396CDE9015469465046A4
:10175000FFF7C6F8CDF800900396CDE9015469462D
:101760005046FFF7BDF806B0BDE8F0870010024014
:1017700000100140000C014070B50546002404E053
:10178000285D00F05DFA641CE4B22846FEF71CFDFB
:10179000A042F5D870BD000030B585B000241C48CB
:1017A0000094019402940394816941F020018161C5
:1017B000816901F020010491816941F00401816196
:1017C000816901F004010491816941F0080181619E
:1017D0008069104D00F00800049000223021284656
:1017E000FFF75EF90820CDE9000469462846029417
:1017F000FFF776F8302000900120CDE901040220A7
:10180000039069462846FFF76BF805B030BD00002D
:10181000001002400008014010B58EB0002407946B
:10182000089409940A940B941C2168460C94FEF7C2
:10183000EAFC2A48284901602321C0E9011440F24A
:10184000E731C0E903148461FFF74AFD08B172B6BD
:10185000FEE74FF48050079007A92048FFF782FD6C
:1018600008B172B6FEE71D48FFF783FE08B172B6F5
:10187000FEE70B940BA919480C94FFF701FD08B182
:1018800072B6FEE76020CDE90004029400226946AA
:1018900012480494FFF70AFE08B172B6FEE704226C
:1018A00069460E48FFF702FE08B172B6FEE708224D
:1018B00069460A48FFF7FAFD08B172B6FEE70C2246
:1018C00069460648FFF7F2FD08B172B6FEE7034825
:1018D000FFF7B4FD0EB010BD00040040580000201A
:1018E000FEE7FEE770477047FFF7E6B830B593B004
:1018F00028216846FEF787FC14210AA8FEF783FC1E
:101900000024022501200F940490009510200590DA
:1019100012944FF4E010CDE908401194109407950B
:101920006846FFF709FB08B172B6FEE70F20CDE964
:101930000A054FF48060CDE90C4001210AA80E94FD
:10194000FFF71EFA08B172B6FEE74FF4804011901F
:101950000F950FA8FFF79EF9002801D072B6FEE799
:1019600013B030BD7047000070B50268134B144CC3
:101970004FF08046984203D0B04201D0A04203D13C
:1019800022F070054A682A43984203D0B04201D041
:10199000A04203D122F44074CA6822434C6922F069
:1019A0008002224302608A68C2620A6882629842A8
:1019B00001D1096901630121416170BD002C014021
:1019C0000004004010B501F01F030121046A994092
:1019D0008C430462016A9A401143016210BD10B544
:1019E000846842EA032224F47F440A43224382604B
:1019F00010BD826822F070020A4342F00701816044
:101A00007047000030B5026A22F001020262026AE9
:101A10004368846924F073050C682C4322F00205A6
:101A20008A682A430A4DA8420BD122F00805CA68E9
:101A300023F440732A434D6922F004021D438B694D
:101A40002B434360846149684163026230BD0000FA
:101A5000002C014030B5026A22F010020262026AD4
:101A6000436884690D6824F4E64444EA05248D68DB
:101A700022F0200242EA05120B4DA8420ED1CD6899
:101A800022F0800242EA05124D6923F4406343EAE2
:101A900085038D6922F0400243EA85034360846137
:101AA00049688163026230BD002C014030B5026A92
:101AB00022F480720262036A4268C46923F40073EC
:101AC00024F073050C682C438D6843EA05230C4D04
:101AD000A8420ED1CD6823F4006343EA05234D6983
:101AE00022F4405242EA05128D6923F4806342EAEF
:101AF00005124260C4614968C163036230BD0000E1
:101B0000002C014030B5026A22F480520262046A5D
:101B10004268C3690D6823F4E64343EA05238D68F0
:101B200024F4005444EA0534064DA84204D14D691A
:101B300022F4804242EA85124260C361496801642E
:101B4000046230BD002C014010B5036A046A24F021
:101B500001040462846924F0F00444EA021423F0CE
:101B60000A020A438461026210BD10B5036A23F0C1
:101B7000100303628369046A23F4704343EA023268
:101B800024F0A00343EA01118261016210BDFEE767
:101B90000907090E002804DB00F1E02080F800149A
:101BA000704700F00F0000F1E02080F8141D70472E
:101BB0002DE9F041154D0F468046002405F1080639
:101BC0000EE000BF28FA04F0C00735F8141056F8EC
:101BD000240018D05FF00102FEF762FF641CE4B23B
:101BE000BC42EFD301220A4DD40321462846FEF71A
:101BF00057FF0120FEF762FE21462846BDE8F0416E
:101C00000022FEF74DBF0022E6E7000000000020A2
:101C10000010014010B5044600224FF480410748EF
:101C2000FEF73EFF20090421FFF7C2FF04F00F007A
:101C3000BDE810400421FFF7BBBF000000100140C9
:101C400010B50446012291030648FEF729FF20093A
:101C50000421FFF7ADFF04F00F00BDE810400421A0
:101C6000FFF7A6BF0010014008B54FF4C8764FF04B
:101C70006408FEF729FFFFF7F6FCFFF737FEFFF7D2
:101C80008BFD8748854A00210260921582600122FF
:101C9000027301754FF46023C36102614160FEF776
:101CA0003BFC08B172B6FEE7FFF7B6FD7D4F01229F
:101CB00010213846FEF7F4FE012220213846FEF7B7
:101CC000EFFE774800213030FFF782FC7448042192
:101CD0003030FFF77DFC724808213030FFF778FC88
:101CE0006F480C213030FFF773FC6D4C64253034A5
:101CF000206845630A20FEF7E1FD206885630A201D
:101D0000FEF7DCFD2068C5630A20FEF7D7FD2068DA
:101D100005640A20FEF7D2FD63A0FFF72DFD4FF406
:101D20007A7AB946002210214846FEF7B9FEFEF73E
:101D300039FB5B48FEF748FD574651465848FEF7C9
:101D4000A5FC5748FEF7E4FB83465548FEF79CFD8B
:101D5000FEF73AFB5248FEF737FD39465048FEF78A
:101D600095FC4F48FEF7D4FB00904D48FEF78CFDE4
:101D7000FEF73CFB4A48FEF727FD39464848FEF788
:101D800085FC4748FEF7C4FB07464548FEF77CFD47
:101D9000B74269DD4FF4006083453BDD009908F5EB
:101DA000006081421ADD4FF000024FF020014846EA
:101DB000FEF776FE206845630A20FEF77FFD206867
:101DC000C5630A20FEF77AFD206805640A20FEF745
:101DD00075FD21684FF42F7088635BE044DA4FF0A3
:101DE00000024FF020014846FEF75AFE2068456386
:101DF0000A20FEF763FD206885630A20FEF75EFD7A
:101E00002068C5630A20FEF759FD21684FF42F7042
:101E100008643FE0834585DA009908F50060814257
:101E20000BDD4FF000024FF020014846FEF738FE70
:101E300021684FF42F7048631DE015DA4FF000025F
:101E40004FF020014846FEF72BFE21684FF42F701B
:101E5000C8630A20FEF732FD206845630A20FEF7BA
:101E60002DFD2068856310E0012220214846FEF701
:101E700017FE206845630A20FEF720FD2068856371
:101E80000A20FEF71BFD2068C5630A20FEF716FD39
:101E9000206805640A20FEF711FD43E70024014095
:101EA00028000020000801404453432053797374F4
:101EB000656D000000000000000000000102030446
:101EC000060708090000000001020304EC1E0008D8
:101ED000000000202800000028010008141F00084E
:101EE00028000020D806000044010008001000204F
:101EF00000400080000C0140000C0140000C01403B
:101F0000000C014001000000100000000000000073
:041F10000024F400B5
:04000005080000ED02
:00000001FF
